:1000000077C2000092C2000090C200008EC20000C1
:100010008CC200008AC2000088C2000086C20000B4
:1000200084C2000082C200000C94101F0C94DD1FDB
:100030000C94FA187AC2000078C2000076C2000060
:1000400074C2000072C2000070C200006EC20000E4
:100050006CC200000C94711968C2000066C20000F6
:1000600064C2000062C2000060C200005EC2000004
:100070005CC200005AC2000058C2000056C2000014
:1000800054C2000052C2000050C200004EC2000024
:100090004CC200004AC2000048C2000046C2000034
:1000A00044C2000042C2000040C20000A8522B001F
:1000B0003900E100E00000001E00140004001D00F3
:1000C000E30021521F001A0016001B00E2004C0042
:1000D000200008000700060048002A002100150043
:1000E0000900190062522252220017000A0005007E
:1000F00000002F003500615200002F020000E300D5
:100100002E006152000030020000E60023001C00B7
:100110000B00110000003000240018000D0010003A
:100120006252225225000C000E00360065002C00A1
:10013000260012000F003700460028002700130099
:1001400033003800635221522D0031003400E500A5
:10015000490000000100010001000100037C0000D3
:100160003A00010001000100010001003B00D20043
:10017000CF0001000100B9003C00CD00CE0001001D
:100180000100B6003D00D100D000010001000100D7
:100190003E00D900DA00010000000100010001006A
:1001A000000001000000010001000100000001004A
:1001B000000001003F004A00500001000000010063
:1001C00040004E00510001000100010041004B00C1
:1001D000520001000100010042004D004F000100EB
:1001E00001000100430001000100010001000100C5
:1001F0004400450001000100010000000100010071
:1002000001000100010000000100010001000100E7
:10021000010001000100D200CF0001000100010037
:100220000100CD00CE000100010001000100D1005D
:10023000D00001000100010001002F022F00260262
:1002400000000100010001000000010000000100A9
:100250000100010000000100000001005300300215
:1002600030002702000001005F005C0059006200BE
:100270000100010060005D005A0063005300D200DD
:1002800061005E005B0067000100D1005400550072
:1002900056005700010001004C005800580058005B
:1002A0000100000029000100010001000100000020
:1002B0001E002B00E100E000010001001F001400FF
:1002C00004001D000100150020001A0016001B008C
:1002D00001002C00210008000700060005000100B5
:1002E000220015000900190000000100230017007A
:1002F00000000A00000001000100010000000100F0
:1003000000000100010001000100010000000100E7
:1003100001000100010001000100010001000100D5
:1003200001000100010001000100010001000100C5
:1003300001000100010001000100010001000100B5
:10034000010001000100010001000000160345004A
:10035000720067006F0044006F00780020004500C5
:100360005A00000028035A005300410020005400A6
:100370006500630068006E006F006C006F0067002E
:10038000790020004C00610062007300000004034B
:10039000090409025400030100A0FA090400000145
:1003A0000301010009211101000122440007058118
:1003B00003080001090401000103010200092111E1
:1003C0000100012247000705820310000109040211
:1003D000000103000000092111010001226D000746
:1003E000058303200001120100020000000897327B
:1003F000744901000102000105010980A101850382
:1004000019012AB700150126B70095017510810062
:10041000C0050C0901A101850419012AA0021501DA
:1004200026A002950175108100C005010906A101F1
:100430008506050719E029E71500250195087501CE
:1004400081020507190029EF1500250195F07501B6
:10045000810205081901290595057501910295018B
:1004600075039101C005010902A1010901A100055F
:100470000919012908150025019508750181020552
:1004800001093009311581257F950275088106091A
:10049000381581257F950175088106050C0A3802FB
:1004A0001581257F950175088106C0C005010906E3
:1004B000A101050719E029E7150025019508750137
:1004C00081029501750881010507190029FF1500B2
:1004D00026FF0095067508810005081901290515F4
:1004E000002501950575019102950175039101C0E3
:1004F00011241FBECFEFDAE0DEBFCDBF11E0A0E0D8
:10050000B1E0E8E2F7E402C005900D92A23AB1072B
:10051000D9F722E0A2EAB1E001C01D92A93EB207DC
:10052000E1F70E949F120C9453236ACD8098889A19
:100530008198899A84988C9A85988D9A86988E9AB3
:1005400087988F9A0895209828982198299822981A
:100550002A9823982B9852985A9853985B983E98CB
:1005600046980895A1E0B0E0E8EBF2E00C94B221E7
:10057000873008F52091060130910701232BB9F44B
:1005800021E030E001C0220F8A95EAF72095298307
:1005900004E610E021E030E0AE014F5F5F4F62E122
:1005A00080E40E94EF1A9093070180930601219640
:1005B000E4E00C94CE218A30B1F038F4883069F050
:1005C000893071F0209A2898F2CF8C3091F070F039
:1005D0008D30C1F73E9A4698EACF219A2998E7CF05
:1005E000229A2A98E4CF239A2B98E1CF529A5A98CC
:1005F000DECF539A5B98DBCFA1E0B0E0E2E0F3E01E
:100600000C94B4218730D8F48091060190910701B1
:10061000892BE9F4198224E630E041E050E0BE0184
:100620006F5F7F4F80E40E94931A9093070180933D
:100630000601898180952196E2E00C94D0219FB13A
:100640008FB1869586958C739370892BF3CF80E05C
:10065000F2CFE7D090E0909307018093060173DF1B
:1006600065CFEF92FF920F931F93CF93DF9380910B
:10067000060190910701892B81F08091A4018F5F81
:100680008093A401811109C0CCD090E09093070120
:1006900080930601892B09F466D008EB12E0C0E0D4
:1006A000D0E087E0E82EEC0E8C2F5CDF8E2D5ADF39
:1006B0008C2FA2DF8F73F80191918F01F12C891794
:1006C00021F031978083FF24F3948E2D95DF8F7373
:1006D000F8019681891771F0868381E08F29D82BE4
:1006E00032DFCF5FC730E9F68D2FCDB7DEB7E6E05A
:1006F0000C94CC2180E0F2CF94D090E0909307014D
:100700008093060120DF12DFE6ECF2E0119282E036
:10071000E43DF807D9F70895259A2D9A0895269A69
:100720002E9A0895279A2F9A089556985E980895BC
:1007300025982D98089526982E98089527982F98F3
:100740000895F3DFF5DFF7DFF9CF90E090938900AC
:100750008093880090938B0080938A0090938D0003
:1007600080938C000895EDDF8FEFEFDFD5DF2FEF63
:1007700080E792E0215080409040E1F700C0000007
:10078000CEDF2FEF80E792E0215080409040E1F7EC
:1007900000C00000C7DF2FEF80E792E021508040CB
:1007A0009040E1F700C00000C3DF2FEF80E792E048
:1007B000215080409040E1F700C00000BCDF2FEFE7
:1007C00080E792E0215080409040E1F700C00000B7
:1007D000B5DFB7CF89EA8093800089E080938100FC
:1007E00024982C983F98479A54985C9A55985D9A0B
:1007F0006E98769A0E94770E6093B2027093B3025D
:100800008093B4029093B50267702FEF629FC0018E
:100810001124959587959595879597DFA4DF0C947E
:10082000D011A2E0B0E0E7E1F4E00C94B22180E264
:1008300090E090930701809306018091A5018111BA
:100840000EC00E941F1A81E08093A5012FEF83ED57
:1008500090E3215080409040E1F700C000001982F1
:100860008FE38A8304E610E022E030E0AE014F5FC0
:100870005F4F60E080E40E94EF1A9093070180933D
:100880000601892B69F422E030E0AE014F5F5F4F33
:100890006CE080E40E94EF1A9093070180930601B8
:1008A000809106012296E4E00C94CE211092B202CF
:1008B0001092B3021092B4021092B50284E08061EB
:1008C0008093B2026091B2027091B3028091B4023F
:1008D0009091B5020E94790E0C94420E0C94D111A5
:1008E00008958430B8F46E30A8F4463098F450E09F
:1008F00096E0699F400D511D1124FA0194E5899FEE
:10090000E00DF11D1124EE0FFF1FE455FF4F8591FF
:100910009491089581E090E00895E3CF089581E0F7
:100920000895FDCF0895FBCF089581E00895F7CF96
:100930000895F5CF0895FDCF089508950895FDCF4A
:10094000089508950895A6E0B0E0E9EAF4E00C9473
:10095000B32149835A839E833091AB0189819A8167
:10096000311117C03E81332389F0222379F087D5D6
:10097000182F682F89819A8161D569817A81812FA9
:100980000E9462102696E3E00C94CF2168D5182FC0
:10099000F4CF75D569817A81F3CFFC01262F408190
:1009A00051816281738184819581CDCFCF93DF9313
:1009B000EC0161E0F2DFBE01B4DF882349F061E0C1
:1009C000CE01EBDFBE01AFDF8170DF91CF910895E3
:1009D00080E0FACF0F931F93CF93DF93EC0160E099
:1009E000DCDF8C01BE01AADFBE01C801A8DFDF91F8
:1009F000CF911F910F91089521E030E0A90102C02D
:100A0000440F551F8A95E2F7CA0151C4CF93C82FEE
:100A100081E090E00C2E02C0880F991F0A94E2F743
:100A20000E94710E8C2FE8DFCF91089581E0089528
:100A3000FDCF0895FBCF0895CF93C82FF0D38C2F0F
:100A4000F7DF8C2FF7DF2FEF84E39CE0215080400D
:100A50009040E1F700C00000CF91089581E0ECDF05
:100A60000C94951980E0E8DF0C94C7190F931F933D
:100A7000CF93DF938C0161E090DFEC01B80157DF89
:100A8000811106C080E0DF91CF911F910F910895F1
:100A9000B801CE0150DF8823A9F3B801CE010E942E
:100AA0007D16882379F3B801CE010E94DA128823DB
:100AB00049F3B801CE010E94B412882319F3B8019A
:100AC000CE010E9462118823E9F2F8018581882312
:100AD00061F0C330FCE7DF07D9F050F4C115ECE753
:100AE000DE07A1F0C130DC47A9F0C8011EDFCBCF83
:100AF000CB358CE7D80799F0CC35ECE7DE0761F011
:100B0000CA35DC4791F70E943E0EEFCFA7DFBACF80
:100B10000E94690EA7DFB6CF0E94360EE6CF0E9474
:100B2000400EE3CF0EDF0E94D41817C018D00ADFA2
:100B30000C94D71881E008950895CF93DF93D82FB0
:100B4000F9DFC82F882311F08D2FF6DF8C2FDF916E
:100B5000CF9108950895F1CF089580E0FCCF0E94D1
:100B6000CC16F9CFCF930E94CC16C82F8091A60146
:100B70008C1771F0C093A6010E9465196093A701BC
:100B80007093A8018093A9019093AA018C2FE3DFB1
:100B9000CF910895ADE0B0E0E0EDF5E00C94B42124
:100BA000488759876A877B878C879D87911189D76A
:100BB0001F8286E0FE013896DE01119601900D92AB
:100BC0008A95E1F78D8181110CC029813A814B8191
:100BD0005C816D817E818F81C4D62D96E2E00C947C
:100BE000D021CE010196E2DE8111EFCFF6CFFC01DC
:100BF0002481213019F48081918172C40895662383
:100C000021F00E9434140C94FF140E948614FBCF30
:100C1000CF93C82F8823B9F08238B9F40E94DB162D
:100C200081FD11C089E30E940318D6D72FEF87EE0C
:100C300093E0215080409040E1F700C0000089E33C
:100C40000E941A18C9D7CF910895833899F40E9449
:100C5000DB1680FDF8CF83E50E940318BDD72FEF88
:100C600081EE94E0215080409040E1F700C0000008
:100C700083E5E6CF843899F40E94DB1682FDE3CF4A
:100C800087E40E940318A8D72FEF81EE94E021504B
:100C900080409040E1F700C0000087E4D1CF8CEFA6
:100CA0008C0F813A68F48C2F0E947817882321F0EA
:100CB0008C2F0E941A1890D78C2F0E940318C2CF35
:100CC00080E28C0F883040F4C77081E001C0880F4B
:100CD000CA95EAF7D9D6B6CFEBE5EC0FE33040F48E
:100CE000F0E0E95AFE4F808190E00E940917ABCFF7
:100CF000E8E5EC0FEB3150F4F0E0EE0FFF1FEF5D95
:100D0000FE4F808191810E9430179DCF83E38C0F2D
:100D1000833108F098CF61E08C2F71DF94CF882366
:100D200009F44DC0823861F40E94DB1681FF47C090
:100D300089E30E94031850D789E30E941A184CC710
:100D4000833851F40E94DB1680FF39C083E50E948E
:100D5000031842D783E5F1CF843851F40E94DB16A3
:100D600082FF2DC087E40E94031836D787E4E5CFC1
:100D70009CEF980F913A08F390E2980F983048F45E
:100D8000877091E001C0990F8A95EAF7892F82D682
:100D9000D6CF9BE5980F933020F490E080E00C9440
:100DA000091798E5980F9B3120F490E080E00C94AF
:100DB000301793E3980F933110F460E020CF08953B
:100DC0001F93CF93DF93182FEB0122DF209731F48D
:100DD000812FA5DFDF91CF911F9108958FE99FE0CB
:100DE0000197F1F700C000002197F0CF70E060E0BC
:100DF000893311F460E570E0E3CF882311F044D625
:100E0000EBC60895882311F045D6E6C60895B0E0F4
:100E1000A0E0EDE0F7E00C94AD216C01D62FC72FD8
:100E2000FC011581068102950F7024D6E82E8823D7
:100E3000E9F0E12E1123D1F08C2F807F803461F016
:100E400080E28D0F8830F8F08C2F807E803221F484
:100E5000D230C8F00023B9F08091B70282FF13C0EE
:100E600082E0DED607D691E0E82EE926BC2EB294C9
:100E70009FE0B922FBE0FB1580F1EB2DF0E0EB5A8F
:100E8000FC4D0C949E21E12CF1CF0C2F0F70C07FF4
:100E900011F00295007F112381F0002349F080E2D8
:100EA0008D0F883010F0D11105C0802FEDD594D66C
:100EB0008D2F40C0802FF8D5FACF8D2F30DF002343
:100EC00061F080E28D0F883010F0D11103C0802FC7
:100ED000E1D502C0802FEED57FD6EB2DE850FF0B79
:100EE000349708F04AC10E94CC1635DECDB7DEB784
:100EF000E9E00C94C9212C2F2F70F22EC07FC03254
:100F000019F0F29480EFF822DD2341F0D13081F125
:100F1000112309F438C00023C9F0CACF8091B70269
:100F200082FD10C0112341F0FF2019F08F2DACD5A8
:100F300053D680E06DDED1CF80E0F1DEFF2069F294
:100F40008F2DC6CF112359F0011103C08F2D55DF0E
:100F5000C4CF013009F0C1CF8F2DC7D5BECF01114D
:100F6000BCCF8F2D4FDF8F2DCBD58F2DB0D5B5CFEB
:100F7000112321F0023008F0B0CFE8CF0111ADCF3E
:100F80008F2D40DFAACF0023D9F3D93349F43FEFA7
:100F900087EE93E0315080409040E1F700C00000C0
:100FA0008D2FBDDE9ACF8C2F86958695837069F044
:100FB000813009F092CF8D2F9C2F9370111102C0B8
:100FC00080E090E00E94301788CF8D2F9C2F937087
:100FD000111102C080E090E00E9409177ECF612FBE
:100FE0008D2F0DDE7ACF8C2F837081F5111175CF87
:100FF0004D2F429546954770440F440F2D2F2F706B
:1010000030E0042E02C0220F331F0A94E2F790E072
:1010100080E0D4FF09C08FE090E002C0880F991FE4
:101020004A95E2F780959095C695C695C370822B38
:10103000932BC23039F040F4C13011F041D14DCF83
:1010400038D14BCF44D149CF32D147CF86951123E8
:1010500011F08C2F8170882309F43FCF4D2F4295DA
:1010600046954770440F440F2D2F2F7030E0042E0B
:1010700002C0220F331F0A94E2F790E080E0D4FF11
:1010800009C08FE090E002C0880F991F4A95E2F7EF
:1010900080959095C695C695C370822B932BC230D0
:1010A00039F040F4C13011F066D117CF5DD115CFC2
:1010B00069D113CF19D111CFCF70112321F08C2F0B
:1010C00027D18D2F44CF8D2F9DDE8C2F2FD105CF93
:1010D000D23F31F160F4D03FB9F0D13F81F011231C
:1010E00009F43BC00111E4CE8C2F8F711DC0D33F9A
:1010F000E9F0D43FA1F78091B70282FD1FC08C2F89
:101100008F71112319F310C0112331F00111E5CEB5
:101110008C2F8F711BD1E1CE023008F0DECEF8CFDC
:101120008C2F8F711111D2CFF3D0D7CE112321F094
:101130008C2F8F71E3D0D1CEDED0CFCE112329F00A
:1011400063E08C2F8F7155D5C8CE81E069D5023010
:1011500008F4C3CE82E064D5C0CE002359F0D93361
:1011600009F01ECFEFEFF7EE23E0E150F040204012
:10117000E1F714CF8C2F8F71A9CFEE2009F4B6CEF2
:1011800075D480FDB3CEF60115826AD4C1D0C601F4
:1011900017D066D4CBD0AACE0F931F93CF93DF93F3
:1011A000EC01688179818D81A4D18C01F2D07ED04F
:1011B000B801CE012CDEDF91CF911F910F910895E0
:1011C000CF93DF93EC018C81882381F0CE014EDC3C
:1011D00081110FC04FD4882349F08D81882331F0CD
:1011E0008091B70282FF02C082E01AD5DF91CF91D1
:1011F0000895CE01D1DFCE01EDDBF8CF90E080E0A5
:101200000E94091790E080E00E9430175AD4E4D47D
:101210000E9418150C94FF140E943118EFCF41D48E
:10122000FBCF92959F70963091F058F4925F9F702B
:10123000923058F4803F19F030F4883E30F481E069
:1012400008959A5FF4CF843FD1F380E00895883EFB
:10125000B0F3813FD1F7F3CFFC012481222321F0A9
:10126000808191813DD1DDCF80E00895A6E0B0E09E
:10127000ECE3F9E00C94B4212696E2E00C94D02142
:10128000A7E0B0E0E6E4F9E00C94B4212796E2E0B0
:101290000C94D0210895FECF0895FDCF0895FADF74
:1012A000FCDF9093DB018093DA0108950895F7CF76
:1012B00008952091DA013091DB01822B932BEFCF3F
:1012C0002091DA013091DB0182239323E8CF209132
:1012D000DA013091DB0182279327E1CFDBCF08953C
:1012E000FDCF0895D7CF0895FDDFFADF9093D901A0
:1012F0008093D801089590E080E0F6CF21E030E0BF
:10130000A90102C0440F551F8A95E2F7CA01ECCF2C
:1013100021E030E002C0220F331F8A95E2F780916E
:10132000D8019091D901822B932BDECF21E030E0C0
:1013300002C0220F331F8A95E2F7209530958091E5
:10134000D8019091D90182239323CECF21E030E0C0
:1013500002C0220F331F8A95E2F78091D801909145
:10136000D90182279327C0CF2091D8013091D9018C
:10137000822B932BB9CF2091D8013091D9018223B0
:101380009323B2CF2091D8013091D901822793279E
:10139000ABCF0895262F277091E001C0990F2A95B1
:1013A000EAF723E0769567952A95E1F7660F771FB0
:1013B000660F771FFA01E60FF71F50E040E0682F35
:1013C00070E08191DF0111979B01042E02C03695D8
:1013D00027950A94E2F721702195282729232827A9
:1013E0002C934F5F5F4F4430510559F70895A82F54
:1013F000A77023E0969587952A95E1F7880F991FA6
:10140000880F991FFB01E80FF91F50E040E080E0D2
:10141000219130E00A2E02C0369527950A94E2F712
:1014200021703327042E01C0220F0A94EAF7822B81
:101430004F5F5F4F4430510559F70895262F9E3076
:1014400068F4863058F4682F70E086E0989F600D4D
:10145000711D11244CEA51E0822F9CCF0895292F51
:101460009E3058F4863048F490E06CEA71E036E043
:10147000239F800D911D1124BACF80E00895B0E024
:10148000A0E0E5E4FAE00C94AD217C010091D801E4
:101490001091D9018091DA019091DB01082B192B71
:1014A000CFE0D0E0CC24C394D12CBC2EC6010C2EAE
:1014B00002C0880F991F0A94E2F780239123892B99
:1014C00049F4219790F7B12C8B2DCDB7DEB7E9E029
:1014D0000C94C921B7018C2F00D6019791F3F4CF5A
:1014E000CF93DF93EC01CBDFBE01F7D5DF91CF9136
:1014F00008951F93CF93DF93EB019091AB01992354
:1015000031F0CB01EDDFDF91CF911F91089588235A
:1015100051F0CB01B4DF182F682FCE018FDFBE0151
:10152000812FDBD5F0CFCB019ADF182FF8CF1F9397
:10153000CF93DF93C091DC0117E08091DD018C1324
:1015400004C0DF91CF911F910895D0E01C9FF0015E
:101550001D9FF00D1124E252FE4F20813181428106
:1015600053816481758186818BDE2196C770E5CFBA
:1015700020911602309117024091180250911902E1
:1015800060911A0270911B0280911C0279CECF9358
:10159000DF9380911C02807F09F04BC080911B0279
:1015A000882309F446C0E091DC015091DD01C0912F
:1015B0001702D0911602609118027091190247E04B
:1015C0005E17B9F18E2F90E0E49FF0011124E252F2
:1015D000FE4F2481222381F1489FF001499FF00DA5
:1015E0001124DF01A252BE4F11962C9111972C139A
:1015F00023C02C912D1320C015962C9115972111E5
:101600001BC012962D913C91261B370B283C3105AF
:1016100098F480911C028F70806180931C02EC51C1
:10162000FE4F80818F708061808386E192E0C8DD0B
:101630007EDFDF91CF910895FC013196E770C0CF36
:10164000482F2091DC019091DD0157E0291302C061
:1016500080E0089530E0529FF001539FF00D112477
:10166000E252FE4F8181681306C08081481303C097
:1016700085818111EECF2F5F3F4F2770E7CFA4E127
:10168000B0E0E5E4FBE00C94AA218C0186E0F801CF
:10169000DE011F9601900D928A95E1F7F801848191
:1016A000E58096E1A92E92E0B92E90911A0291114F
:1016B0001AC08823A9F0EE2089F0C801CDDDF82EEC
:1016C000882361F087E0F801D50101900D928A9599
:1016D000E1F7C5018CDA5BDF4BDF59C0C80170DD73
:1016E000FF24F39454C0C080D18082809380F09016
:1016F0001B022091180230911902A401421B530BC6
:10170000FF2009F4E9C0483C510508F09CC088233B
:1017100009F43DC09091170280911C02282F207F70
:1017200009F056C09D1114C090911602C91210C044
:10173000E11048C08F70806180931C0219DF86E140
:1017400092E03EDD80911C02F8018683F12C1FC0DF
:10175000E11038C06D2D8C2D73DF6D2D8C2D70DF59
:10176000E82E8111F3CFCF86D88A8F859889B8DE8D
:10177000292F22952F70243078F49F702230A0F00A
:101780009923B1F0F8019681907F91F4FE2C8F2D72
:101790006496ECE00C94C6212A5F2F70223060F032
:1017A000C8010EDDEF2CF2CF992311F0882371F3DD
:1017B000805E883058F3F4CF803F40F3815F833000
:1017C00078F7E4CF80911C02816080931C02BECF29
:1017D0009D1112C090911602C9120EC0E1100CC0EA
:1017E0008683C801EDDC87E0F801A6E1B2E0019054
:1017F0000D928A95E1F770CFC8012EDD882309F498
:101800006DCFEE2009F46ACF80911C02803280F007
:101810002091160230911702398728879B868A8685
:1018200090911A029C871D868E87CE010896C8DC8F
:1018300087E0F801A6E1B2E001900D928A95E1F708
:10184000A6DE96DE4DCF90911C02292F207F89F4D1
:10185000682D9A8A898AA6017A899E2D07DD86E1FC
:1018600092E0AEDC87E0F50111928A95E9F780DE1F
:101870006DCF882309F48BCF809117028D110FC093
:1018800080911602C8120BC0E11009C09683C801EE
:1018900097DC87E0F50111928A95E9F778CFC801C6
:1018A000DBDC882309F41ACFEE2009F417CF8091EE
:1018B0001C02803208F4BCCF20911602309117022E
:1018C0003A8329839C828B8290911A029D831E8287
:1018D0008F83CE010196ABCF483C5105A8F58823F4
:1018E00009F4FECEFE2CEE2009F4F8CE809117020A
:1018F0008D111EC080911602C8121AC080911C0260
:1019000080FD0DC0982F907F51F08683903F09F4A1
:1019100068CF982F907F905F8F70892B61CF87E081
:10192000F801A6E1B2E001900D928A95E1F72FCF80
:10193000C80192DC81117CCF80911C028160809370
:101940001C02C8013DDC23CF682D9A8A898AA60132
:101950007A899E2D8BDC87E0F50111928A95E9F753
:10196000BBCEAEE0B0E0E7EBFCE00C94B3212887FF
:1019700039874A875B876C877D878E87CE0108967B
:101980007EDE8823A9F06C85662339F028853985A9
:101990004A855B857D858E8573DC17E08091DC014F
:1019A0009091DD0189133BC02E96E3E00C94CF218A
:1019B00087E0FE013896DE01119601900D928A951E
:1019C000E1F78C85882349F32091DD0130E0C901DE
:1019D0000196877099274091DC014817190691F00C
:1019E00097E0929FD001939FB00D1124A252BE4F59
:1019F000FE01319601900D929A95E1F78093DD01F9
:101A000096DDCBCF0CDC1092DD011092DC0187E07B
:101A1000E6E1F2E0DF011D928A95E9F7BECF819FF2
:101A2000C001112482529E4F2ADE882309F4BCCFC4
:101A3000E091DC011E9FF0011124E252FE4F208153
:101A400031814281538164817581868119DC809165
:101A5000DC0190E00196877099278093DC019ECF8E
:101A600080914502869586958695089580914502D8
:101A70008770089590914502977081E009F480E0A5
:101A8000089580917102089590917102892B80933D
:101A9000710208958095909171029823909371023C
:101AA000089510927102089590917002892B80938D
:101AB000700208958095909170029823909370021F
:101AC00008951092700208950895FECF08959091A0
:101AD0004602292F282329F08095892380934602E6
:101AE000F4CF08950895FECF089590914702292FCD
:101AF0002823281721F0982B90934702F4CF0895BC
:101B000090914702292F282329F0809589238093DB
:101B10004702E9CF089580914702882321F010926F
:101B2000470280E0E0CF0895CF93C0917102809189
:101B30007002C82B80914702882329F0C82B0E948D
:101B400057178111E8DF8C2FCF910895CF93DF9342
:101B5000C0910A01D0910B01E7DF8883C0910A018F
:101B6000D0910B0148E050E06DE372E0CE010E949D
:101B70000623892B59F088E0FE01ADE3B2E0019025
:101B80000D928A95E1F7CE010E94DD16DF91CF918B
:101B90000895CF93DF93C0910801D0910901C4DF6C
:101BA0008983C0910801D091090140E250E06DE1C4
:101BB00072E0CE010E940623892B59F080E2FE01DB
:101BC000ADE1B2E001900D928A95E1F7CE010E945D
:101BD000EA16DF91CF9108950E94C516882329F057
:101BE0008091B60287FF01C0D4CFB0CF0895FECF59
:101BF00008959091B70292FF0EC098E0899F9001DE
:101C00001124622B6093450283DB80914502869507
:101C100086958695ECCF7CCB1092450280E0E7CF8D
:101C2000909145028095892380934502282F277043
:101C300059F4891749F09091B70292FF05C0869533
:101C40008695869573DBE8CF08959091B70292FB55
:101C5000222720F9281749F080FB92F99093B702C8
:101C600086EB92E042D082E0DBCF08958091B7020C
:101C700082FB882780F991E08927E7CF81E0E5CFD3
:101C800080E0E3CF60E070E0CB017FC3A3E0B0E091
:101C9000ECE4FEE00C94B42127D332D31B82CE01B6
:101CA000039645D381E090E09093DB018093DA01C5
:101CB0004AD31A8219828A8184618A83CE0101966D
:101CC00053D30E9456042396E2E00C94D021DECF39
:101CD00008951CC3089509C308951EC308952DC314
:101CE000089531C3089534C308953EC3089543C38E
:101CF000089545C308954FC30895A6E0B0E0E3E812
:101D0000FEE00C94B2210E9459198C01809172025C
:101D1000909173028017910781F019821A820E94B4
:101D20005919682F49815A81792F80E090E00E94EB
:101D3000CA0510937302009372022696E4E00C9495
:101D4000CE210E946519609386027093870280936A
:101D50008802909389026093820270938302809339
:101D6000840290938502089508950895FDCF089503
:101D70000895FEDFFBCF0895FECF08950895FEDF9E
:101D8000FBCF80E691E1EBD3F0DFF3CF81E0089564
:101D9000FDCF0895FBCF0895089508950895FCDFC1
:101DA000FCDFFCCF98DF811101C091DF8AE892E06F
:101DB00094DF86EB92E097DF92DF79DA8091D801A9
:101DC0009091D9018DCA0E945019F3D2EBDF0E9485
:101DD000AA05D5CFA6E0B0E0E0EFFEE00C94AB2181
:101DE000D7DF811108C089DF45D60E94B20526964B
:101DF000EBE00C94C721EDD284E7A82E82E0B82E48
:101E0000750110E0F70101917F01812FCBD21F5F97
:101E10001E3009F43DC00817A9F380918A0281FDA4
:101E2000C7D2B8DFC82E10E099249394812FBAD27C
:101E3000082FF50181915F01081729F1F12CEE249B
:101E4000E394D02ED8268D2D8E21A9F0CC2099F0A8
:101E5000F9821A830E9459199C838B839D8291E099
:101E6000802F8E2109F490E049815A816B817C8119
:101E70008D810E94CA05F394EE0CF6E0FF12E3CFC9
:101E8000F501319700831F5F1E3081F65ADFACCF1A
:101E90000813C3CFA8CF1F93CF93DF9320D1EC01BA
:101EA000C11580E5D807F0F5C11580E4D80708F022
:101EB0009AC0C03ED10520F5CD3CD10508F082C0C6
:101EC000C83AD10578F4C53AD10508F073C0C130DD
:101ED000D10519F1209709F1C430D105F0F4D0E013
:101EE000C0E01BC0C33CD105D0F7C85AD0E0CC0F2E
:101EF000DD1FC65ADE4F0990D881C02DD4640DC0B5
:101F0000C11580E2D80708F0CDC0C11581E0D8071F
:101F100008F05AC0C83ED10510F7CE01DF91CF912D
:101F20001F910895C03682E5D80718F5C03482E5C0
:101F3000D80708F068C0C03282E5D80708F05CC056
:101F4000C11582E5D80708F493C02C2F2695269555
:101F500080E2289F900111248C2F8370C1E0D0E093
:101F600002C0CC0FDD1F8A95E2F7C22BD32BDD68B0
:101F7000D4CFC03A82E5D80760F4C03882E5D807EC
:101F800008F456C0CF71D0E0DC2FCC27C46FD06AE4
:101F9000C4CFC03C82E5D80708F45FC0C03E82E5EC
:101FA000D80708F09CCFDC2FCC27CC27DF71C06F7F
:101FB000D06AB3CFC55AD0E0C057DE4FC881D0E059
:101FC000D064ABCFD065A9CF8D2F2BD1182FCE01E8
:101FD000992785D0C12FD0E0DC2FCC27CC27DF710B
:101FE000C82BD92B9ACFCE01992779D0CC27DF7077
:101FF000C82BD92BD06A91CFCF71D0E0DC2FCC2762
:10200000C16FD06A8ACF2C2F26952695277080E243
:10201000289F900111248C2F8370C1E0D0E002C072
:10202000CC0FDD1F8A95E2F7C22BD32BDC6875CF6E
:102030002C2F26952695277080E2289F9001112449
:102040008C2F8370C1E0D0E002C0CC0FDD1F8A95D9
:10205000E2F7C22BD32BDA6860CF8C2F8F71E1D0DF
:10206000C82FD0E0DC2FCC27CC27DF71D06255CF32
:102070008C2F8F71D6D055E0D695C7955A95E1F73C
:10208000CF70D0E0DC2FCC27282F30E084FF06C0B3
:1020900044E0220F331F4A95E1F73327C22BD32B9D
:1020A000D0693BCF8D2F8F71BCD0182FCE019927CF
:1020B00016D0C12FD0E0DC2FCC27CC27DF71C82B66
:1020C000D92BD4CF462F7E3028F4663018F4672FF2
:1020D0000C948D0490E080E00895F4DFDCCE82382B
:1020E0009105B9F1B0F48133910509F47DC048F44C
:1020F0008932910509F46DC08A32910509F47BC0DB
:1021000008958533910509F45FC08933910509F17C
:102110000895833E9105D9F138F4803E910529F167
:10212000823E910579F10895863E9105D9F1873E69
:10213000910509F43EC0843E910541F52091B70216
:1021400021FF24C08091B60284FD19C087EE90E083
:1021500008952091B602237009F05AC02091B70269
:1021600023FF14C089E290E008952091B60220FD7B
:1021700038C03091B70230FF09C024FF43C090E05F
:1021800080E008952091B60222FDF7CF08952091B6
:10219000B60222FD3AC03091B70230FD39C024FFAB
:1021A000F5CFEDCF2091B60223FFF0CF24FDE7CF8E
:1021B000CDCF2091B60223FD2EC03091B70231FF62
:1021C000EECF84EE90E008952091B60225FFDECF99
:1021D000C9CF2091B60225FD21C02091B70223FF6F
:1021E000D5CF89E390E0D2CF2091B60226FFCECFA3
:1021F0008AE290E008952091B60226FFC7CF81E3DE
:1022000090E0089583EE90E0089582EE90E00895C6
:1022100080EE90E0089586EE90E0089585E390E0EA
:1022200008959091B60292FF10C041E0282F2471CA
:10223000243009F040E031E0282F2871283009F0DF
:1022400030E0431711F02CE0822793FF10C041E0EB
:10225000282F2471243109F040E031E0282F287123
:10226000283109F030E0431711F02CE0822730913B
:10227000B70230FF10C051E0282F2171213009F042
:1022800050E041E0282F2871283009F040E0541731
:1022900011F029E0822731FF10C041E0282F217181
:1022A000213109F040E031E0282F2871283109F070
:1022B00030E0431711F029E0822794FD877E0895CE
:1022C00080E00895CF939C01205E3245C1E020322A
:1022D000310538F4FB01C581C11103C08F710E9423
:1022E00006058C2FCF910895089590E080E00E941C
:1022F000202321E0833E9E4F09F020E0822F0895A5
:1023000063EE7EEF90E080E00C943F236FEF7FEF71
:1023100090E080E00C943F23CF93DF93EC0182E0C8
:1023200090E00E9413238883DF91CF910895FC01F0
:10233000608182E090E00C94252383E090E00E948D
:10234000132390E00895682F83E090E00C942523F8
:10235000CF93DF93EC0184E090E00E9420239983E7
:102360008883DF91CF910895FC016081718184E0C1
:1023700090E00C943F238FE090E00C941B23AB0182
:10238000BC018FE090E00C943723AB01BC0183E1EA
:1023900090E00C943723682F8EE090E00C94252376
:1023A00008950895E82FF0E0EA53FD4F80810895E5
:1023B00008950E942903E8EBF2E0A6ECB2E0119246
:1023C0001D9282E0E63CF807D1F78EE014D00C9421
:1023D000EA03CF9388EB92E00E943103282F4EE06E
:1023E00066EC72E088EB92E019D0C82F0E946E0470
:1023F0008C2FCF910895CF93C82F90E00E94DB21BE
:1024000080938F0290939002282FFC018E2F821BC5
:102410008C1710F0CF9108951192F8CFB0E0A0E0A2
:10242000E4E1F2E10C94AF21082FF92EE62ED72E2D
:10243000142FC22F10928B02D0918C02DD2309F44D
:1024400050C037D720918D0230918E02AC01421BD3
:10245000530B9A0190938E0280938D024F3F51054A
:1024600009F0C8F4452B99F010928C021092910259
:1024700040918F02E42FF091900290E030E08E2F97
:10248000841B811758F030938C0290939102C111F4
:1024900035C0CD2F28C02FEF30E0E6CF80818823D4
:1024A00021F0281720F010829D2F3196E8CF821B53
:1024B00080833D2FFACF99913C91391779F0308183
:1024C00031110CC060834C914927282F30E0242B18
:1024D00081E0232B09F480E09C9321E03196119652
:1024E0001DC0211106C0809191028823F9F0C1110D
:1024F00005C0DFD690938E0280938D0210929102D8
:1025000050918F0280918B0220918C02AE2DBD2DB7
:10251000C02FDF2DE52FF09190026EE19E2F951BCD
:10252000911748F280938B0220938C0280918B024A
:10253000CDB7DEB7E7E00C94CB214CCC089553D651
:102540000E945F1C1EDC0E94771C3DDC0E94801CE8
:102550000E94831CF2DF0E94991C21DCF9CF90932A
:10256000A3018093A2010895CF93DF93EB018631FD
:102570009C47F1F486DA9D81992389F08A7A91E06B
:1025800009F490E090939202811107C089E23BD553
:1025900023DB80E0DF91CF91089585E3F8CF809130
:1025A0009202811103C089E245D5F2CF85E3FCCFC9
:1025B00081E0F0CFCF93DF93EC01FB01858188238D
:1025C00009F4CBC09E0130572332310508F0ABC06F
:1025D00086EB92E088DBFE01E150F047E232F10544
:1025E00020F4EF59FC4D0C949E218091B60281603D
:1025F0008093B60292C08091B70288608093B70240
:102600008CC08091B6028260F3CF8091B602846064
:10261000EFCF8091B6028860EBCF8091B7028160E6
:10262000EDCF8091B7028260E9CF8091B6028061E0
:10263000DFCF8091B6028062DBCF8091B6028064EA
:10264000D7CF0E940F098091B6028068D1CF8091C8
:10265000B6028C60CDCF8091B7028360CFCF8091DE
:10266000B6028E7FC5CF8091B702877FC7CF80919A
:10267000B6028D7FBDCF8091B6028B7FB9CF80919E
:10268000B602877FB5CF8091B7028E7FB7CF80919A
:10269000B7028D7FB3CF8091B6028F7EA9CF809194
:1026A000B6028F7DA5CF8091B6028F7BA1CF0E940D
:1026B0000F098091B6028F779BCF8091B602837FFE
:1026C00097CF8091B7028C7F99CF8091B60282FB21
:1026D000992790F921E0922790FB82F990FB83F9EA
:1026E00087CF8091B702982F909591708E7F892B1C
:1026F00090FB81F983CF9091B602892F8F7B96FF53
:10270000806476CF0E940F099091B602892F97FBC3
:1027100087F980586DCF81E0EEDA86EB92E0E5DA5A
:102720000E940F0980E0DF91CF91089580E0F4CFFF
:102730009091B602892F8F7E94FF806159CF90913E
:10274000B602892F8E7F90FF816052CF9091B702A1
:10275000892F877F93FF886051CF81E0E4CF282FB6
:1027600035EB2303C001112497FF04C08058910961
:10277000892F089580589F4FFBCF80919A0280FF48
:102780000DC06091110170E0660F771F6038710510
:1027900070F56115710569F1862F089581FF07C0F5
:1027A0006091110184E0689FB0011124EFCF609126
:1027B000110182FD0AC0809199028823A9F020911D
:1027C000100160911101821710F088E0ECCF869F14
:1027D000C001112433E0880F991F3A95E1F7622F69
:1027E00070E00E948B21D2CF68E070E0D5CF8FE7F8
:1027F000089581E0089580919A0280FF0CC0609155
:102800000D0170E075956795759567956115710572
:1028100049F1862F089581FF06C060910D0170E097
:1028200075956795F3CF60910D0182FD0BC0909176
:1028300098029923A1F060910C0180910D019617E7
:1028400038F0682F70E06038710500F38FE7089565
:10285000899FC001112470E00E948B21F4CF61E0B8
:1028600070E0D7CF81E008958D3C29F486DF819513
:1028700080939D0208958E3C11F47FDFF9CF8F3C49
:1028800029F47BDF819580939C020895803D11F4AB
:1028900074DFF9CF893D21F4AEDF80939E02089565
:1028A0008A3D19F4A8DF8195F8CF8B3D29F4A3DF89
:1028B000819580939F0208958C3D11F49CDFF9CFA0
:1028C0009FE2980F983070F4815D990B21E030E021
:1028D00001C0220F8A95EAF780919B02822B809398
:1028E0009B0208958D3D31F480919A02816080931E
:1028F0009A0208958E3D21F480919A028260F7CF6A
:102900008F3DB9F780919A028460F1CF40919C028B
:102910008D3C59F480919D0287FF0DC010929D025D
:1029200041110BC01092990208C08E3C81F4809135
:102930009D0218169CF3442381F080919E02909191
:102940009F02892B09F05AC01092980208958F3C7B
:1029500049F447FFF0CF10929C0280919D028111B3
:10296000ECCFE0CF803D19F41416ACF3E4CF909196
:102970009E02893D29F41916F4F610929E02DBCFCF
:102980008A3D19F497FFD7CFF8CF90919F028B3DE6
:1029900029F497FFD0CF10929F02CDCF8C3D19F430
:1029A0001916CCF3C8CF9FE2980F983090F4815D50
:1029B000990B21E030E0B90102C0660F771F8A95BC
:1029C000E2F7CB01809590919B02892380939B0233
:1029D000B2CF8D3D31F480919A028E7F80939A021E
:1029E000AACF8E3D21F480919A028D7FF7CF8F3D43
:1029F00009F0A1CF80919A028B7FF0CF089559D42E
:102A00009C0190919C0280919D02982B21F0309323
:102A100097022093960290919E0280919F02982B9C
:102A200021F030939502209394028BE992E0E4C167
:102A300085E0EBE9F2E0DF011D928A95E9F710925B
:102A400099021092980210929A020895FC018181D5
:102A500081110EC0828181110BC08381811108C058
:102A600091E08481811101C090E0892F81700895E7
:102A700081E0FCCFA5E0B0E0E0E4F5E10C94B32107
:102A800085E0EBE9F2E0DE01119601900D928A9566
:102A9000E1F710929C0210929D0210929E021092F9
:102AA0009F028A819B81892B81F08091960290916F
:102AB000970290D3AC01909199029923A9F180914A
:102AC00012018417150608F43CC08C819D81892B66
:102AD00089F080919402909195027CD3AC01909101
:102AE0009802992309F463C080910E01841715069A
:102AF00008F46BC0BE016F5F7F4F8BE992E0CAD2D2
:102B0000811104C08BE992E0A1DF811178DF85E0BB
:102B1000FE013196ABE9B2E001900D928A95E1F7A2
:102B20002596E3E00C94CF21209193028AE0289F20
:102B3000900111242417350740F69F5F9093990266
:102B400002C09F3FD1F71A81112351F016DE9FEF8B
:102B500011160CF491E0899F802D112480939C0222
:102B60001B81112351F009DE9FEF11160CF491E047
:102B7000899F802D112480939D0280919C0288233F
:102B800009F4A3CF10919D02112309F49ECFE7DD34
:102B9000882349F080939C02812FE1DD882329F06E
:102BA00080939D0292CF81E0F5CF81E0F9CF209113
:102BB0000F018AE0289F900111242417350708F09F
:102BC00099CF9F5F9093980202C09F3FD1F71C81DD
:102BD000112351F010DE9FEF11160CF491E0899F44
:102BE000802D112480939E021D81112351F003DE5C
:102BF0009FEF11160CF491E0899F802D1124809392
:102C00009F0280919E02882309F474CF10919F0245
:102C1000112309F46FCFA3DD882349F080939E022E
:102C2000812F9DDD882329F080939F0263CF81E06F
:102C3000F5CF81E0F9CF0F931F93CF93DF93C42F8C
:102C4000D22FFC0185818823C1F04093A20231D3A9
:102C50009093A1028093A00280E28C0F883040F410
:102C6000C77081E001C0880FCA95EAF70E94FD068F
:102C7000DF91CF911F910F9108951091A20214132B
:102C800031C08091A0029091A102A4D2883C91050C
:102C900048F5C0E2CD0F1D17B9F080E2810F8830F2
:102CA00040F4177081E001C0880F1A95EAF70E947E
:102CB0000207C83048F481E09D2F977001C0880F4B
:102CC0009A95EAF70E94FD06802F0E94F606C8300A
:102CD00078F6D77081E001C0880FDA95EAF70E9494
:102CE0000207C6CF80E28C0F883010F6C77081E0F3
:102CF00001C0880FCA95EAF7F2CF0F93DB01885124
:102D00009C478730910598F5FC01ED57FC4D0C94DC
:102D10009E2106E221EE41EE6AE17CE7CD018BDFE8
:102D200080E00F91089507E225EE45EE6BE17CE728
:102D3000F5CF06E221EE40EE68E17CE7EFCF07E257
:102D400025EE44EE69E17CE7E9CF06E221EE42EEB2
:102D50006CE17CE7E3CF07E225EE46EE6DE17CE730
:102D6000DDCF08E221E045EE6EE17CE7D7CF159696
:102D70008C91882319F01092A202D3CF81E0D1CF99
:102D80009093A8028093A7020895EDD191E081303D
:102D900009F090E0892F0895E091A702F091A80230
:102DA000309739F00190F081E02D309711F00995BE
:102DB000089580E00895F0CF0895E091A702F09182
:102DC000A802309731F00280F381E02D309709F0AE
:102DD00009950895E091A702F091A802309759F063
:102DE00024813581232B39F026E0DC012C930480EB
:102DF000F581E02D09950895E091A702F091A802D0
:102E0000309731F00680F781E02D309709F0099571
:102E10000895A3E0B0E0EFE0F7E10C94B421209135
:102E2000A5023091A60228173907B1F09093A602A7
:102E30008093A502E091A702F091A802309761F07B
:102E40000084F185E02D309739F023E029839B83BE
:102E50008A83CE01019609952396E2E00C94D02155
:102E6000A3E0B0E0E6E3F7E10C94B4212091A302E3
:102E70003091A40228173907B1F09093A4028093EF
:102E8000A302E091A702F091A802309761F00084BC
:102E9000F185E02D309739F024E029839B838A83E4
:102EA000CE01019609952396E2E00C94D021CF93B0
:102EB000DF93C0910A01D0910B01229666DF88232F
:102EC00081F08091B60287FF0CC0C0910801D091BB
:102ED000090122969EE180E0915028F4DF91CF9184
:102EE000089596E0F8CF29912223B1F38F5FF4CFB4
:102EF000CF93C82F811102C080E023C046DF882312
:102F000011F18091B60287FF1EC0EC2FE695E69581
:102F1000E695EE3188F78091080190910901E80F5C
:102F2000F92FF11D228130E0C77081E090E002C0EE
:102F3000880F991FCA95E2F72823392381E0232BB4
:102F4000D9F2CF91089580910A0190910B01FC0173
:102F50003296089621912C1721F0E817F907D1F73E
:102F6000CBCF81E0EECF9C01FC0132969FEF80E059
:102F70004191461751F09F3F19F4411101C0982F1C
:102F80008F5F8630A9F79F3F09F40895290F311DFF
:102F900097FD3A95F90162830895FC0132960896EF
:102FA0002191261303C0DF0111971C92E817F9073E
:102FB000B9F70895E62FE695E695E695EE3168F4C3
:102FC000E80FF92FF11D677021E030E001C0220FFA
:102FD0006A95EAF78281822B82830895E62FE6952F
:102FE000E695E695EE3170F4E80FF92FF11D677064
:102FF00021E030E001C0220F6A95EAF72095828136
:10300000282322830895CF93C82FBFDE6C2F8823F7
:1030100059F08091B60287FF07C080910801909116
:103020000901C8DFCF91089580910A0190910B01A9
:103030009ADFF8CFCF93C82FA8DE6C2F882359F0E2
:103040008091B60287FF07C0809108019091090125
:10305000C5DFCF91089580910A0190910B019DDF0A
:10306000F8CF93DE882379F08091B60287FF0BC0FA
:10307000E0910801F091090132968EE1DF011D9285
:103080008A95E9F70895E0910A01F0910B013296D3
:1030900086E0F4CFDC01FB019C918081981322C073
:1030A00011968C911197882319F0918189131AC078
:1030B00012968C911297882319F09281891312C06D
:1030C00014968C911497882319F0948189130AC05F
:1030D00013969C91992321F081E02381291303C049
:1030E00080E001C081E0817008950895FECF0895C9
:1030F00081110CC081E080931601609113017091E1
:1031000014018091150190911601F0CF82E0F3CF68
:1031100083E08093160160911301709114018091F6
:10312000150190911601E2CFE3CF089581E08093DD
:103130001601609113017091140180911501909115
:103140001601D4CFF3CF089591E0811101C090E032
:1031500090931501609113017091140180911501F4
:1031600090911601C3CF80911501089580931401A9
:1031700060911301709114018091150190911601D5
:10318000B5CF8091140108958093130160911301CC
:10319000709114018091150190911601A7CF809133
:1031A0001301089508950895FECF08950895FACF64
:1031B0000895CF930E947C030CD9F8DFC0E08C2FD8
:1031C000F1D8811105C0CF5FCE30C9F7CF910895F6
:1031D00081E0FCCFCF93DF93EC016BD08C1B9D0B78
:1031E000DF91CF91089585B7806885BF85B78068E6
:1031F00085BF08951F921FB61F9211248F939F932E
:10320000AF93BF938091A902811113C08091D40222
:103210009091D502A091D602B091D7024196A11DFE
:10322000B11D8093D4029093D502A093D602B0939F
:10323000D702BF91AF919F918F911F901FBE1F909A
:1032400018958091DC02843031F10E949205109231
:10325000A90288E190E020E40FB6F894A895809345
:1032600060000FBE2093600083B7817F846083BFBE
:1032700083B7816083BF7894889583B78E7F83BF3F
:103280000FB6F894A89580916000886180936000E3
:10329000109260000FBE08950E940F090C949605CD
:1032A00082E084BD93E095BD9AEF97BD80936E0058
:1032B00008952FB7F8948091D4029091D502A091EF
:1032C000D602B091D7022FBF08952FB7F89460911E
:1032D000D4027091D5028091D6029091D7022FBF6F
:1032E000089578941F921FB61F9211248F939F9375
:1032F000AF93BF938091D4029091D502A091D60252
:10330000B091D7020196A11DB11D8093D402909374
:10331000D502A093D602B093D702BF91AF919F91EF
:103320008F911F901FBE1F901895F89481E0809395
:10333000E00080E28093D800E9ECF0E010828FE1B9
:103340009EE40197F1F700C000001DBA10926800DA
:103350001CBC10BE1FBA10927A0010926E00109220
:103360006F0010927100109272001082ECEBF0E08E
:10337000108214B817B81AB81DB810BA108215B850
:1033800018B81BB81EB811BA0C94003F089588E114
:103390009AE00FB6F894A895809360000FBE9093C2
:1033A0006000FFCFEF92FF920F931F93CF93DF93B5
:1033B000182FEB011092BC0084EA8093BC0079DFE7
:1033C0007C018091BC0087FF26C08091B900887F76
:1033D000883029F08091B900887F803169F5109399
:1033E000BB0084E88093BC0064DF8C018091BC004A
:1033F00087FF1CC02091B900287F90E080E0283131
:1034000089F081E090E0203411F490E080E0919523
:103410008195910907C0C701DDDEC817D90788F675
:103420008EEF9FEFCDB7DEB7E6E0B6C7C801D2DEBC
:10343000C817D907D8F6F4CF8FEF9FEFF3CF1092CC
:10344000B9008CE08093B80008950F931F93CF9339
:10345000DF93EB018093BB0084E88093BC0029DFFD
:103460008C018091BC0087FF11C02091B900287F9A
:1034700081E090E0283211F490E080E09195819510
:103480009109DF91CF911F910F910895CF3FDC07F4
:1034900041F3C8019FDEC817D90718F78EEF9FEFD9
:1034A000F0CF0F931F93CF93DF93EC0184EC8093C5
:1034B000BC00FFDE8C018091BC0087FF08C08091BA
:1034C000BB0090E0DF91CF911F910F910895CF3F06
:1034D000DC0789F3C8017EDEC817D90760F78EEFD5
:1034E0009FEFF0CF0F931F93CF93DF93EC0184E80E
:1034F0008093BC00DEDE8C018091BC0087FF08C099
:103500008091BB0090E0DF91CF911F910F910895C2
:10351000CF3FDC0789F3C8015DDEC817D90760F724
:103520008EEF9FEFF0CFB0E0A0E0E8E9FAE111C73D
:103530007B014A018901782E689470F8BADE5C013B
:10354000CC24C394D12C0431110558F085E0C82E49
:10355000D12C0F3F100729F0C80164E170E0C7D6F5
:103560006B01B601872D1EDFEC0197FF08C00F3FEE
:103570001007B9F3C5012EDE0817190790F7D12CF3
:10358000C12CF1E08F1A9108C814D904E0F4D7FFD8
:103590000DC084E98093BC00CE011C161D0614F4F6
:1035A00090E080E0CDB7DEB7EDE0EFC6C80179DF8F
:1035B000EC0197FD04C0F701EC0DFD1D8083EFEFDA
:1035C000CE1ADE0AE1CFD7FDE4CFC8018BDFEC01D4
:1035D00097FDDFCFE80CF91CF7018083DACFB0E06C
:1035E000A0E0E4EFFAE1B4C6682E762E5A01690134
:1035F00060DE4C01C1E0D0E00431110550F0C5E0BF
:10360000D0E00F3F100729F0C80164E170E06FD6E9
:10361000EB01BE01862DC6DE7C0197FF1AC00F3F6D
:103620001007B9F3C401D6DD0817190790F784E92C
:103630008093BC00C701CDB7DEB7EEE0A5C6B801E8
:10364000899103DF7C01CC16DD0689F3F7FEF7CF05
:10365000EECFB801872DF9DE7C01E501CA0CDB1C39
:10366000F2CF9B01BA019091DC029430E1F48F70AB
:103670008093E9009FEF8091E800915085FD06C09E
:1036800085ED8A95F1F700009111F5CF8091E80062
:1036900085FF09C050E040E0C901BFD18091E8003A
:1036A0008E778093E800089543E050E0BC0183E00A
:1036B000D8CF45E050E0BC0182E0D3CF40E250E0FB
:1036C000BC0183E0CECFCF93DF93EC014CDD48E02B
:1036D00050E0BE0181E0C5DF88E0FE01AAEAB2E069
:1036E00001900D928A95E1F7DF91CF910895809135
:1036F000DB02811107C01FD376D38091E200846082
:103700008093E20008951092DB0208950FDD81E0BE
:103710001BCD6091D80281E0611101C080E0F8CC3E
:103720009091DC0281E0943009F080E06091D80251
:10373000FBCC42E061EC81E07AD242E161EC82E0D4
:1037400076D242E261EC83E072D29091DC0281E0B9
:10375000943009F080E06091D802CACC8091DE02FA
:10376000833009F460C030F48130D1F1823009F443
:1037700096C008958A3009F485C08B3009F46DC075
:10378000893009F04FC08091DD02813209F04AC0D2
:103790008091E1029091E202009719F0029709F0FE
:1037A00041C08091E800877F8093E8008091E80025
:1037B00082FF34C09091F3008091F200029731F4BF
:1037C0008091F100813011F0863019F48091F10080
:1037D000CDDC8091E8008B778093E8005CD222C03A
:1037E0008091DD02813AF1F48091E800877F809337
:1037F000E8008091E1029091E202892B59F468E09F
:103800008AEA92E070E056D18091E8008B7780934D
:10381000E800089560E090E080E0F4CF8091DC0261
:103820008111C4CF08958091DD02813AD9F780914A
:10383000E1029091E202892BA9F78091E800877F4D
:103840008093E8008091E80080FFFCCF8CDC8093BF
:10385000F1008091E8008E77BFCF8091DD02813248
:1038600009F78091E1029091E202892BD9F68091CB
:10387000E800877F8093E8000ED28091DF0264DC4D
:103880000C940F098091DD02813261F68091E8008D
:10389000877F8093E800FFD18091E00275CC809112
:1038A000DD02813A09F0BECF8091E800877F8093E6
:1038B000E8008091E80080FFFCCF71DCC8CF84B7BE
:1038C000877F84BF0FB6F894A895809160008861C7
:1038D00080936000109260000FBE80E890E00FB609
:1038E000F89480936100909361000FBE2BCC23D29B
:1038F0007AD2E2EEF0E08081846080837894DDC447
:1039000087E191E03DCA8091DC02853029F4809105
:10391000DC02853011F0C0CC089593DC4ADC8823AA
:10392000B1F38091DA02882391F361D00E940F09EC
:10393000EECF08959A014091E3025091E40200C055
:10394000492F55274330510521F168F44130510585
:1039500009F443C04230510509F444C090E080E0CE
:1039600050E040E026C04132510551F1423251054C
:10397000A9F76330710590F7FB01EE0FFF1FEA56C0
:10398000FE4F408151816D567E4FFB01808190E05A
:1039900010C099278130910581F0009729F0029796
:1039A000E9F6ECE4F3E002C0EEE8F3E0849190E0A5
:1039B000AF01F901518340830895E4E6F3E0F6CFC7
:1039C0006330710558F6660F771FFB01E456FE4F12
:1039D0004081518189E090E0ECCF82E190E046EEB9
:1039E00053E0E7CF84E590E042E953E0E2CF80E1A5
:1039F00089BD82E189BD09B400FEFDCF8091D80068
:103A00008F7D8093D8008091E00082608093E000F9
:103A10008091E00081FDFCCF0895AF92BF92CF92DC
:103A2000DF92FF920F931F93CF93DF936C01EB0113
:103A30008A0150D1F82E811123C00115110539F0EA
:103A4000F80180819181C81BD90BC80ED91EB12CF9
:103A5000A12C2097A9F08091E80085FD21C08091DC
:103A6000E8008E778093E80001151105A1F0F801B8
:103A700080819181A80EB91EB182A08285E0F82EC6
:103A80008F2DDF91CF911F910F91FF90DF90CF90FD
:103A9000BF90AF9008951ED18823D9F2F82EF0CFB1
:103AA000F60181916F018093F1002197FFEFAF1A2A
:103AB000BF0ACFCFFC018091E3029091E402861708
:103AC0009707A0F06115710529F49091E8009E77A1
:103AD0009093E80090E06115710551F4911108C0D0
:103AE0008091E80082FF34C080E00895BC01F2CFED
:103AF0008091DC028823C1F18530C1F18091E8001A
:103B000083FD30C08091E80082FDEACF8091E8001B
:103B100080FFE1CF8091F3002091F200382F6115F2
:103B2000710519F02830310558F091E02830310541
:103B300009F090E02091E8002E772093E800CBCFA9
:103B400081918093F100615071092F5F3F4FE7CF62
:103B50008091DC02882341F0853041F08091E800BB
:103B600083FFBECF81E0089582E0089583E0089549
:103B7000FC018091E3029091E40286179707A0F080
:103B80006115710529F48091E8008E778093E80033
:103B900090E06115710551F4911108C08091E80021
:103BA00082FF35C080E00895BC01F2CF8091DC0235
:103BB0008823C9F18530C9F18091E80083FD31C0C7
:103BC0008091E80082FDEACF8091E80080FFE1CF9C
:103BD0008091F3002091F200382F6115710519F0E2
:103BE0002830310558F091E02830310509F090E097
:103BF0008091E8008E778093E800CBCF849180930A
:103C0000F1003196615071092F5F3F4FE6CF8091EF
:103C1000DC02882341F0853041F08091E80083FF89
:103C2000BDCF81E0089582E0089583E00895982F44
:103C3000973028F08F708093E90081E00895909389
:103C4000E900242F762F50E0981731F07091EC00A6
:103C50002091ED005091F00021FD02C09F5FE8CF60
:103C60003091EB003E7F3093EB003091ED003D7FD3
:103C70003093ED003091EB0031603093EB007093A6
:103C8000EC002093ED005093F0002091EE0027FD12
:103C9000E5CF80E008958091DD0287FF13C0809119
:103CA000E80082FF06C08091E8008B778093E800EF
:103CB00004C08091DC028111F2CF08958091DC0272
:103CC0008823D9F38091E80080FFF8CF8091E80045
:103CD0008E77ECCF2091E4003091E50095E6A901C4
:103CE0002091EC00822F817020FF06C08091E800B7
:103CF00080FF06C080E008952091E80022FD1AC0F0
:103D00008091DC02882389F0853089F08091EB0076
:103D100085FD0FC02091E4003091E5004217530764
:103D2000F9F29150E1F684E0089582E0089583E08D
:103D3000089581E0089567D06ED0E0EEF0E08081D4
:103D400081608083E8EDF0E080818F77808319BC0B
:103D5000A7EDB0E08C918E7F8C9380818F7E8083E5
:103D60001092DB0208950F931F93CF93DF934BD0F4
:103D700052D0C8EDD0E088818F77888388818068B1
:103D8000888388818F7D888319BC1092DC02109211
:103D9000D8021092DA021092D90200EE10E0F80177
:103DA00080818B7F808388818160888342E060E0AE
:103DB00080E03DDFE1EEF0E080818E7F8083E2EE07
:103DC000F0E0808181608083808188608083F80159
:103DD00080818E7F8083888180618883DF91CF910D
:103DE0001F910F910895E8EDF0E080818F7E808330
:103DF000E7EDF0E080818160808384E082BF81E034
:103E00008093DB02B0CFE8EDF0E080818E7F80838D
:103E10001092E20008951092DA001092E1000895E5
:103E20001F920F920FB60F9211242F933F934F932F
:103E30005F936F937F938F939F93AF93BF93EF9312
:103E4000FF938091E10082FF0AC08091E20082FF2F
:103E500006C08091E1008B7F8093E1002DD280919C
:103E6000DA0080FF18C08091D80080FF14C08091D4
:103E7000DA008E7F8093DA008091D90080FF91C0B4
:103E800080E189BD82E189BD09B400FEFDCF81E0FA
:103E90008093DC022CDC8091E10080FF18C08091CF
:103EA000E20080FF14C08091E2008E7F8093E200E8
:103EB0008091E20080618093E2008091D80080626E
:103EC0008093D80019BC85E08093DC0222DC8091CD
:103ED000E10084FF2AC08091E20084FF26C080E1D7
:103EE00089BD82E189BD89B5982F917080FFFBCF94
:103EF0008091D8008F7D8093D8008091E1008F7EE3
:103F00008093E1008091E2008F7E8093E2008091B7
:103F1000E20081608093E2008091D802882309F456
:103F200045C084E08093DC02FBDB8091E10083FFED
:103F300027C08091E20083FF23C08091E100877F4A
:103F40008093E10082E08093DC021092D80280919D
:103F5000E1008E7F8093E1008091E2008E7F80936C
:103F6000E2008091E20080618093E20042E060E044
:103F700080E05DDE8091F00088608093F000C6DB19
:103F8000FF91EF91BF91AF919F918F917F916F9131
:103F90005F914F913F912F910F900FBE0F901F9007
:103FA000189519BC1092DC02AEDB75CF8091E3004E
:103FB00087FD93E09093DC02B7CF1F920F920FB66C
:103FC0000F9211242F933F934F935F936F937F939F
:103FD0008F939F93AF93BF93CF93DF93EF93FF9311
:103FE000D091E900DF708091EC00C82FC17080FD96
:103FF000C0E81092E9008091F000877F8093F00084
:1040000078941ED01092E9008091F000886080932F
:10401000F000CD2BCF70C093E900FF91EF91DF91BD
:10402000CF91BF91AF919F918F917F916F915F9150
:104030004F913F912F910F900FBE0F901F901895A9
:10404000AAE2B0E0E5E2F0E28EC18DED92E02091CF
:10405000F100FC012193CF01F2E0853E9F07B9F703
:104060007DDB8091E80083FF16C18091DD02909195
:10407000DE029A3008F00FC1E92FF0E0E657FC4D60
:104080005DC1803899F0823809F005C18091E10264
:104090008F70873008F0FFC08093E9008091EB00BB
:1040A00085FB882780F91092E90006C08091D9022B
:1040B0009091DA02911182609091E800977F90933D
:1040C000E8008093F1001092F1008091E8008E7773
:1040D000DFC0882309F4CDC0823009F0DCC08091B4
:1040E000DF028111D0C08091E1028F702FEF280F85
:1040F000263008F0D0C08093E9002091EB0020FF2B
:10410000C2C0933031F48091EB0080628093EB0069
:10411000BAC09091EB0090619093EB0021E030E009
:1041200001C0220F8A95EAF72093EA001092EA0074
:104130008091EB008860EACF8111ADC01091DF0261
:104140001F778091E3008078812B8093E30080913A
:10415000E800877F8093E8009EDD8091E80080FF83
:10416000FCCF8091E30080688093E30082E011112E
:1041700083E08093DC028FC08058823008F08BC0CF
:104180008091DF029091E0028C3D23E0920799F547
:1041900083E08A838AE289834FB7F894DE0113961D
:1041A00020E03EE051E2E32FF0E050935700E4912D
:1041B00020FF03C0E295EF703F5FEF708E2F90E01D
:1041C000EA30B8F0C7968D939D932F5F243159F74D
:1041D0004FBF8091E800877F8093E8006AE270E03B
:1041E000CE01019667DC8091E8008B778093E80030
:1041F00052C0C096E8CF6091E1027091E202AE0138
:104200004F5F5F4F97DBBC01892B09F444C090914D
:10421000E800977F9093E80089819A81A9DCE3CF39
:104220008038C9F58091E800877F8093E80080910D
:10423000D8028093F10049CF81112DC09091DF0207
:10424000923048F58091E800877F8093E800909352
:10425000D80221DD8091D802882311F084E005C0C6
:104260008091E30087FDFACF81E08093DC0261DA80
:1042700012C08091DF02813071F481E0933009F047
:1042800080E08093DA021092E9008091E800877F55
:104290008093E80000DD8091E80083FF0AC08091F0
:1042A000E800877F8093E8008091EB008062809334
:1042B000EB00AA96E3E073C00895CF938091DC02EF
:1042C000882399F0C091E900CF709091EC00892F7C
:1042D000817090FD80E8C82B1092E9008091E80081
:1042E00083FDAEDECF70C093E900CF910895AA1B85
:1042F000BB1B51E107C0AA1FBB1FA617B70710F0D1
:10430000A61BB70B881F991F5A95A9F78095909502
:10431000BC01CD01089597FB072E16F4009406D03A
:1043200077FD08D0E4DF07FC05D03EF49095819539
:104330009F4F0895709561957F4F0895EE0FFF1F71
:104340000590F491E02D09942F923F924F925F9245
:104350006F927F928F929F92AF92BF92CF92DF9295
:10436000EF92FF920F931F93CF93DF93CDB7DEB7FA
:10437000CA1BDB0B0FB6F894DEBF0FBECDBF09948E
:104380002A88398848885F846E847D848C849B84E5
:10439000AA84B984C884DF80EE80FD800C811B81F3
:1043A000AA81B981CE0FD11D0FB6F894DEBF0FBE22
:1043B000CDBFED0108950F931F93CF93DF9382300C
:1043C000910510F482E090E0E091E702F091E802BC
:1043D00030E020E0B0E0A0E0309799F421153105FD
:1043E00009F447C0281B390B24303105C0F58A81F8
:1043F0009B816115710571F1FB0193838283FE013D
:1044000011C0408151810281138148175907F8F08A
:104410004817590799F4109761F012960C93129768
:1044200013961C933296CF01DF91CF911F910F917C
:1044300008950093E7021093E802F4CF21153105A7
:1044400019F04217530718F49A01BD01EF01DF017B
:10445000F801C2CF9093E8028093E702D0CFFE012B
:10446000E20FF31F819391932250310939832883FE
:10447000DACF2091E5023091E602232B41F420911E
:104480000201309103013093E6022093E50220916E
:104490000001309101012115310541F42DB73EB7DE
:1044A0004091040150910501241B350B4091E50218
:1044B0005091E6024217530708F0B5CF241B350B85
:1044C0002817390708F4AFCFBC016E5F7F4F26175E
:1044D000370708F4A8CF640F751F7093E602609346
:1044E000E502FA01819391939ECFCF93DF930097DA
:1044F000E9F0FC01329713821282C091E702D09159
:10450000E802DE0130E020E02097A1F42081318133
:10451000820F931F2091E5023091E6022817390798
:1045200009F067C0F093E602E093E502DF91CF91D6
:104530000895DA01AE17BF0708F040C012964D91FA
:104540005C9113979D014115510599F7D901139677
:10455000FC93EE9312974D915D91A40FB51FEA174E
:10456000FB0779F4808191810296840F951FD90110
:1045700011969C938E938281938113969C938E9334
:104580001297B0E0A0E08A819B810097B9F5FE0107
:1045900081919191E80FF91F8091E5029091E602D7
:1045A0008E179F0719F6109761F51092E802109286
:1045B000E702D093E602C093E502B8CFB383A283AB
:1045C00040815181840F951FA817B90771F44E5F80
:1045D0005F4F8D919C911197480F591F51834083D4
:1045E00012968D919C91938382832115310509F058
:1045F000ADCFF093E802E093E70298CFDE01EC0143
:10460000C2CF13961C921E921297D3CFFB01DC01EE
:1046100004C08D910190801921F441505040C8F799
:10462000881B990B0895F999FECF92BD81BDF89A28
:10463000992780B50895A6E1B0E044E050E025C098
:10464000A8E1B0E042E050E020C0262FF999FECF6B
:1046500092BD81BDF89A019700B4021639F01FBAD5
:1046600020BD0FB6F894FA9AF99A0FBE08950396F2
:10467000272FECDFEADF252FE9DF242FE7CF019694
:10468000272FE4DFE2CFDC01CB01FC01F999FECF5B
:1046900006C0F2BDE1BDF89A319600B40D924150CA
:1046A0005040B8F70895F894FFCF450745077B07BA
:1046B0007B07D307EF076D076D07F3075C086808F2
:1046C00068082F139F133713011305133B130913A6
:1046D0003F134B131513981319134F131D13531333
:1046E0007B1321135713821327135D1365130D13C7
:1046F0004313111347132B13611371138B13961369
:10470000FB123313A61399169F1689169316A51636
:10471000AB16B116412069204B2169204B219C200A
:08472000BC204B2110211C21DB
:104728000000E90220002000480268023C07142823
:104738003C071400000100C118631B5E1B591B5481
:104748001BE200E900EA00B500B600B700CD00831F
:1047580001CC008A0192019401210223022402253E
:1047680002260227022A02B300B4006F0070009FDD
:1047780001CB019F02A002818283E200E900EA00E6
:10478800B500B600B700CD008301CC008A019201C4
:1047980094012102230224022502260227022A026A
:1047A800B300B4006F0070009F01CB019F02A0020C
:1047B80081828344476DAC046504F803A403BD03F8
:0247C800D60316
:00000001FF
